:100000000C942A000C9447000C9447000C94470071
:100010000C9447000C9447000C9447000C94470044
:100020000C9447000C9447000C9447000C94470034
:100030000C9447000C9447000C9447000C94470024
:100040000C9447000C9447000C9447000C94470014
:100050000C94470011241FBECFE5D8E0DEBFCDBF12
:1000600010E0A0E6B0E0EAE7FAE002C005900D92E9
:10007000A23AB107D9F720E0A2EAB0E001C01D9290
:10008000A33AB207E1F70E9490020C943B050C944E
:1000900000000F931F93CF93DF93E0E6F0E044E876
:1000A00050E081E021E030E061E070E02583908164
:1000B000913009F468C038F0923009F4C4C093302C
:1000C00009F421C180C19281913059F59AB38B0115
:1000D000018002C0000F111F0A94E2F7092B0ABB2E
:1000E0009381913061F49BB38B01018002C0000FBA
:1000F000111F0A94E2F7D801A92BABBB66C191117D
:100100000DC0CBB38B01018002C0000F111F0A94F8
:10011000E2F7902F90959C239BBB57C11582832FAC
:1001200054C191112DC0CAB38B01018002C0000FD0
:10013000111F0A94E2F7902F90959C239ABB94810B
:10014000913061F49BB3EB01018002C0CC0FDD1F45
:100150000A94E2F7DE01A92BABBB37C191110DC0A8
:10016000CBB38B01018002C0000F111F0A94E2F78C
:10017000902F90959C239BBB28C11582832F25C16E
:100180001582832F22C19281913059F597B38B014B
:10019000018002C0000F111F0A94E2F7092B07BB70
:1001A0009381913061F498B3EB01018002C0CC0FD0
:1001B000DD1F0A94E2F7DE01A92BA8BB06C191114D
:1001C0000DC0C8B38B01018002C0000F111F0A943B
:1001D000E2F7902F90959C2398BBF7C01582832F50
:1001E000F4C091112DC0C7B38B01018002C0000F74
:1001F000111F0A94E2F7902F90959C2397BB94814E
:10020000913061F498B3EB01018002C0CC0FDD1F87
:100210000A94E2F7DE01A92BA8BBD7C091110DC04B
:10022000C8B38B01018002C0000F111F0A94E2F7CE
:10023000902F90959C2398BBC8C01582832FC5C072
:100240001582832FC2C09281913059F594B38B01EE
:10025000018002C0000F111F0A94E2F7092B04BBB2
:100260009381913061F495B3EB01018002C0CC0F12
:10027000DD1F0A94E2F7DE01A92BA5BBA6C09111F0
:100280000DC0C5B38B01018002C0000F111F0A947D
:10029000E2F7902F90959C2395BB97C01582832FF2
:1002A00094C091112DC0C4B38B01018002C0000F16
:1002B000111F0A94E2F7902F90959C2394BB948190
:1002C000913061F495B3EB01018002C0CC0FDD1FCA
:1002D0000A94E2F7DE01A92BA5BB77C091110DC0EE
:1002E000C5B38B01018002C0000F111F0A94E2F711
:1002F000902F90959C2395BB68C01582832F65C075
:100300001582832F62C09281913059F591B38B0190
:10031000018002C0000F111F0A94E2F7092B01BBF4
:100320009381913061F492B3EB01018002C0CC0F54
:10033000DD1F0A94E2F7DE01A92BA2BB46C0911192
:100340000DC0C2B38B01018002C0000F111F0A94BF
:10035000E2F7902F90959C2392BB37C01582832F94
:1003600034C091112DC0C1B38B01018002C0000FB8
:10037000111F0A94E2F7902F90959C2391BB9481D2
:10038000913061F492B3EB01018002C0CC0FDD1F0C
:100390000A94E2F7DE01A92BA2BB17C091110DC090
:1003A000C2B38B01018002C0000F111F0A94E2F753
:1003B000902F90959C2392BB08C01582832F05C077
:1003C0001582832F02C01582832F3696E417F50716
:1003D00009F06CCEDF91CF911F910F910895CF93CB
:1003E000DF93282FE0E6F0E0A4E8B0E081E030E021
:1003F000908192137BC09181961378C09581913042
:1004000009F074C09281913009F070C0423008F058
:100410006DC0213001F130F02230B1F1233009F408
:100420004CC06BC0413059F49BB321E030E002C0B6
:10043000220F331F6A95E2F7292B2BBB5EC09BB3BB
:1004400021E030E002C0220F331F6A95E2F72095C9
:1004500029232BBB52C0413059F498B321E030E03E
:1004600002C0220F331F6A95E2F7292B28BB45C033
:1004700098B321E030E002C0220F331F6A95E2F703
:100480002095292328BB39C0413059F495B321E088
:1004900030E002C0220F331F6A95E2F7292B25BBFB
:1004A0002CC095B321E030E002C0220F331F6A95C3
:1004B000E2F72095292325BB20C0413059F492B39F
:1004C00021E030E002C0220F331F6A95E2F7292BAA
:1004D00022BB13C092B321E030E002C0220F331FD1
:1004E0006A95E2F72095292322BB07C03696832F11
:1004F000EA17FB0709F07CCF80E0DF91CF910895E8
:1005000060E080E00E94CD0260E081E00E94CD02C8
:10051000089581E00E94100380E00E941003089576
:100520000E9449000E942F03D0E06894CC24C1F8B7
:1005300011E00F2EF4E6DF2EF02D0F2EF3E0EF2E5C
:10054000F02DC0E06894FF24F2F8D130A9F040F01B
:10055000D23019F0D33049F00BC06D2DDE2D0EC016
:100560000E94800260E5D12F09C060E5DF2D06C042
:100570000E9489026C2F02C06AE5DC2D812F0E9447
:10058000D3040C2F28E833E14C2F5C2F6C2F7C2FE9
:100590008C2F9C2F0E945204D8CF882319F08130D1
:1005A000E9F038C061110CC041E062E083E00E94D4
:1005B000EF0140E063E083E00E94EF0181E00895F5
:1005C000613051F540E062E083E00E94EF0141E0DC
:1005D00063E083E00E94EF0181E0089561110CC0A7
:1005E00041E067E083E00E94EF0140E066E083E0E5
:1005F0000E94EF0181E00895613081F440E067E0FE
:1006000083E00E94EF0141E066E083E00E94EF0199
:1006100081E0089580E0089580E0089580E00895E5
:10062000882319F0813069F018C040E062E083E06F
:100630000E94EF0140E063E083E00E94EF0181E06F
:10064000089540E067E083E00E94EF0140E066E04B
:1006500083E00E94EF0181E0089580E00895FF9219
:100660000F931F93CF93DF93E4E8F0E022EA30E0AA
:10067000D3E1C4E2DF018381813009F43FC020F07F
:10068000823009F4CCC003C112BE1681818540E1DD
:10069000849FC001112495819068892B912F9270BD
:1006A000990F990F892B412F417050E08A01002446
:1006B000169507950794169507950794102F002D0A
:1006C000802B83BF8681823061F08330A1F081115D
:1006D000DEC08481882309F4DAC089B7816089BFCC
:1006E000D6C08481882319F089B7826089BF1796A4
:1006F0008C918CBFCCC087818CBFC9C01DBC1CBC79
:100700001FBC1EBC8FB5968193708C7F892B8FBDCB
:100710008EB59681990F9871877E892B8EBD8EB587
:100720009EB5887F1581812B892B8EBD8681813076
:1007300069F118F0843009F1AAC08181811114C0D7
:100740008E9817BC16BC1DBC1CBC89B7806289BFC3
:100750008281813021F48EB580648EBD05C0811107
:1007600003C08EB58F7B8EBD14968C91882309F4BF
:100770008EC089B7846089BF8AC08481882319F0BC
:1007800089B7806189BFDBBDCABD81C08FB5877F56
:100790008FBD8FB58B7F8FBD8081811115C08D9AE4
:1007A0009185943008F073C01FB50FB51F73F12EFB
:1007B00010E4919FC00111248F29802B8FBD80856B
:1007C0008BBD87818ABD63C0813009F060C081B371
:1007D000806381BB8185843008F059C01FB50FB597
:1007E0001F73F12E10E4819FC00111248F29802BEB
:1007F0008FBDFFB40FB5918510E1919FC001112409
:10080000807399271F2D1F7C812B802B8FBD8085A6
:100810008BBD87818ABD19BC878188BD38C014BC57
:100820001681818560E1869FC001112495819068C1
:10083000892B912F9270990F990F892B612F6170DD
:1008400070E08B010024169507950794169507957F
:100850000794102F002D802B85BD8681823059F0A2
:10086000833099F0811113C08481882381F089B786
:10087000806489BF0CC08481882319F089B780689F
:1008800089BF17968C9183BD02C0878183BD3A963C
:10089000E217F30709F0EECEDF91CF911F910F9190
:1008A000FF900895EF92FF920F931F93CF93DF93E2
:1008B000122FD32FC42FB52FF62FE72FE82EF92EA6
:1008C000011135C0A0E00E941B0509F465C008B6FF
:1008D00000FEFDCF8091A2008F5F8F3119F08093D1
:1008E000A20015C01092A200212F3D2F4C2F5B2F8C
:1008F0006F2F7E2F8E2D9F2DAFEF0E940F05122F91
:10090000D32FC42FB52FF62FE72FE82EF92E88B757
:10091000816088BF212F3D2F4C2F5B2F6F2F7E2FA3
:100920008E2D9F2DA0E00E941B0589F635C0013059
:1009300099F5A0E00E941B0579F108B606FEFDCFEF
:100940008091A2008F5F8F3119F08093A20015C0B3
:100950001092A200212F3D2F4C2F5B2F6F2F7E2F47
:100960008E2D9F2DAFEF0E940F05122FD32FC42F76
:10097000B52FF62FE72FE82EF92E88B7806488BFB1
:10098000212F3D2F4C2F5B2F6F2F7E2F8E2D9F2DD4
:10099000A0E00E941B0589F6DF91CF911F910F9176
:1009A000FF90EF90089581110AC02FEF629FC00160
:1009B000112464E670E00E94FB046CBF089582304D
:1009C00051F42FEF629FC001112464E670E00E9491
:1009D000FB0463BD0895813069F42FEF629FC0016D
:1009E000112464E670E00E94FB04772779BD68BD9E
:1009F0007BBD6ABD089597FB072E16F4009407D0BF
:100A000077FD09D00E94270507FC05D03EF490959C
:100A100081959F4F0895709561957F4F08950024AB
:100A2000A7FD00942A0F301D401D501D601D701D34
:100A3000801D901D08950024A7FD00942A173005FD
:100A40004005500560057005800590050895AA1BB6
:100A5000BB1B51E107C0AA1FBB1FA617B70710F0A9
:100A6000A61BB70B881F991F5A95A9F780959095DB
:0A0A7000BC01CD010895F894FFCFFA
:100A7A0003020100FF0103030100FF010304010057
:100A8A00FF0103050100FF0103060100FF0103073F
:100A9A000100FF01FFFFFF02010100FF0000FFFF4D
:100AAA00FF00000100FF000001FFFF01FF0201C873
:020ABA00000238
:00000001FF
